:020000040800F2
:1000000020620020A1020008513E0008F1380008DB
:100010004D3E0008450B0008C1600008B30200080F
:100020000000000000000000000000001D59000852
:10003000490B000800000000D53E00087D5900086B
:10004000BD020008BD020008BD020008BD02000894
:10005000BD020008BD020008BD020008BD02000884
:10006000BD020008BD020008BD020008BD02000874
:10007000BD020008BD020008BD020008BD02000864
:10008000BD020008BD020008BD020008BD02000854
:10009000BD020008BD020008BD020008BD02000844
:1000A000BD020008BD020008BD020008BD02000834
:1000B000BD020008BD020008BD020008BD02000824
:1000C000BD020008BD020008BD020008BD02000814
:1000D000BD020008BD020008BD020008BD02000804
:1000E000BD020008BD020008BD020008BD020008F4
:1000F000BD020008BD020008BD020008BD020008E4
:10010000BD020008BD020008BD020008BD020008D3
:10011000BD020008BD020008BD020008BD020008C3
:10012000BD020008BD020008BD020008BD020008B3
:10013000BD020008BD020008BD020008BD020008A3
:10014000BD020008BD020008BD020008BD02000893
:10015000BD020008BD020008BD020008BD02000883
:10016000BD020008BD020008BD020008BD02000873
:10017000BD02000800000000BD02000800000000F1
:10018000BD020008BD020008BD020008BD02000853
:10019000BD020008BD020008BD020008BD02000843
:1001A000BD020008BD020008BD020008BD02000833
:1001B000BD020008BD020008BD020008BD02000823
:1001C000BD020008BD020008BD020008BD02000813
:1001D000BD020008BD020008BD020008BD02000803
:1001E000BD020008BD020008BD020008BD020008F3
:1001F000BD02000800F002F800F040F80AA090E804
:10020000000C82448344AAF10107DA4501D100F0D1
:1002100035F8AFF2090EBAE80F0013F0010F18BF5E
:10022000FB1A43F0010318473077000050770000B5
:10023000103A24BF78C878C1FAD8520724BF30C812
:1002400030C144BF04680C607047000000230024E4
:1002500000250026103A28BF78C1FBD8520728BFD6
:1002600030C148BF0B6070471FB505F0E7FF0FBCFA
:1002700000F014F80FB41FBD10B510BD00F05CF80D
:100280001146FFF7F1FF05F06BFF00F07AF803B4B9
:10029000FFF7F2FF03BC00F087F8000000F0BCB8E5
:1002A0000A4880470A480047FEE7FEE7FEE7FEE708
:1002B000FEE7FEE7FEE7FEE7FEE7FEE7FEE70000FB
:1002C00004480549054A064B70470000955C000844
:1002D000F5010008200200202062002020220020DA
:1002E000202200204FF0000200B5134694469646A7
:1002F000203922BFA0E80C50A0E80C50B1F1200139
:10030000BFF4F7AF090728BFA0E80C5048BF0CC0E6
:100310005DF804EB890028BF40F8042B08BF704744
:1003200048BF20F8022B11F0804F18BF00F8012BB6
:100330007047704770477047754600F02BF8AE461F
:1003400005006946534620F00700854618B020B5E1
:10035000FFF7B6FFBDE820404FF000064FF0000762
:100360004FF000084FF0000BAC46ACE8C009ACE819
:10037000C009ACE8C009ACE8C00921F007018D460E
:10038000704710B50446AFF300802046BDE810402A
:10039000FFF77DBF0048704770000020002801D0A3
:1003A00000F002B87047000001491820ABBEFEE71C
:1003B0002600020070B505460C460A2000E06D1CC0
:1003C00000F011F835B128780028F8D102E0641C5B
:1003D00000F009F814B120780028F8D1BDE8704089
:1003E0000A20AFF3008008B569468DF800000320AD
:1003F000ABBE08BD70470246C91C21F00301D2E91B
:1004000000031B1A8B4201D2002070470144C91D12
:1004100021F00701116070472DE9F34F83B00027E9
:100420004FF48074BA4603A821468DF80070FFF798
:10043000E2FF5FEA000801D100F0AAF82146404639
:1004400000F070F8060009D04FF0010B4546C14698
:1004500016F8014B8FB15C2C16D01CE008F1080097
:100460004146C8F800000020C8F80400D8F8004051
:100470002070012005B0BDE8F08F222C01D0272C80
:100480000FD12746BA462CE03078222807D05C28C6
:1004900005D0272803D0BC4203D1002721E0761CD9
:1004A00004464CB12FB9202C06D0A4F10900042831
:1004B00002D905F8014BCBE74D4502D1BAF1000F47
:1004C0000FD052464946002005F8010B6846AFF3AD
:1004D00000809DF8000070B14D464FF0000A0BF10E
:1004E000010B002CB4D14FEA8B0103A8FFF783FF67
:1004F000040002D004E0A946EFE7002000F048F82D
:1005000000204246C4F8008005E012F8011B11B932
:10051000401C44F82020AA42F7D3002144F82010C0
:100520002146A7E71CB50446CDE900016946152020
:10053000ABBE08B100201CBD20461CBD70477047F3
:1005400010B5012805D0002103A0FFF733FF0120DB
:1005500010BD09A1F8E7000053494752544D454DDD
:100560003A204F7574206F662068656170206D6554
:100570006D6F7279000000003A2048656170206D4F
:10058000656D6F727920636F727275707465640047
:1005900010B5FFF7D5FFBDE81040FFF7FFBE000024
:1005A00080B584B001460390002002900398002893
:1005B000019104D0FFE76FF00100029017E003986B
:1005C00040F24C11C2F2000151F82010C96840F20B
:1005D0004812C2F2000252F820008847B0F1FF3FF3
:1005E00004DCFFE76FF004000290FFE7FFE70298EA
:1005F00004B080BDB0B58AB09C4696460C46054610
:100600000990089107920693002005900998002808
:10061000CDF810C0CDF80CE00294019504D0FFE7AE
:100620006FF00100059021E0099840F24C11C2F2F0
:10063000000151F82010896A40F24812C2F200020B
:1006400052F82000089A079BDDF818C00091114667
:100650001A466346DDF800C0E047B0F1FF3F04DC16
:10066000FFE76FF004000590FFE7FFE705980AB089
:10067000B0BD000070B58CB0DDF840C09E46144699
:100680000D4606460B900A910992089300200790A8
:100690000B980028CDF818C0CDF814E00494039509
:1006A000029604D0FFE76FF00100079026E00B9858
:1006B00040F24C11C2F2000151F82010096B40F2D7
:1006C0004812C2F2000252F820000A9A099BDDF893
:1006D00020C0DDF840E06C46C4F800E0019111460E
:1006E0001A466346DDF804C0E047B0F1FF3F04DC82
:1006F000FFE76FF004000790FFE7FFE707980CB0F3
:1007000070BD000070B58CB0DDF840C09E46144648
:100710000D4606460B900A91099208930020079017
:100720000B980028CDF818C0CDF814E00494039578
:10073000029604D0FFE76FF00100079026E00B98C7
:1007400040F24C11C2F2000151F82010496B40F206
:100750004812C2F2000252F820000A9A099BDDF802
:1007600020C0DDF840E06C46C4F800E0019111467D
:100770001A466346DDF804C0E047B0F1FF3F04DCF1
:10078000FFE76FF004000790FFE7FFE707980CB062
:1007900070BD0000F0B58FB0DDF854C0DDF850E05A
:1007A0001C4615460E4607460E900D910C920B9373
:1007B00000200A900E980028CDF824C0CDF820E043
:1007C000079406950596049704D0FFE76FF00100A3
:1007D0000A9028E00E9840F24C11C2F2000151F844
:1007E0002010C96A40F24812C2F2000252F82000FA
:1007F0000D9A0C9BDDF82CC0DDF850E0159C6D4681
:100800006C60C5F800E0039111461A466346DDF8B6
:100810000CC0E047B0F1FF3F04DCFFE76FF00400DD
:100820000A90FFE7FFE70A980FB0F0BDF0B58FB070
:10083000DDF854C0DDF850E01C4615460E4607466C
:100840000E900D910C920B9300200A900E980028A8
:10085000CDF824C0CDF820E00794069505960497BE
:1008600004D0FFE76FF001000A9028E00E9840F2F4
:100870004C11C2F2000151F82010896B40F248126D
:10088000C2F2000252F820000D9A0C9BDDF82CC039
:10089000DDF850E0159C6D466C60C5F800E00391F2
:1008A00011461A466346DDF80CC0E047B0F1FF3F41
:1008B00004DCFFE76FF004000A90FFE7FFE70A9807
:1008C0000FB0F0BD85B00A460346049003910020A6
:1008D0000290049800280192009304D0FFE76FF083
:1008E0000100029003E0039802210160FFE70298F3
:1008F00005B0704780B586B00A460346059004915E
:1009000000200390059800280292019304D1FFE78C
:100910000498002804D1FFE76FF0010003901BE06A
:10092000059840F24C11C2F2000151F82010496CB8
:1009300040F24812C2F2000252F82000049A0091DC
:100940001146009A9047B0F1FF3F04DCFFE76FF0DB
:1009500004000390FFE7FFE7039806B080BD0000A6
:1009600080B586B00A4603460590049100200390A6
:10097000059800280292019304D1FFE7049800280B
:1009800004D1FFE76FF0010003901BE0059840F2EF
:100990004C11C2F2000151F82010896C40F248124B
:1009A000C2F2000252F82000049A00911146009A07
:1009B0009047B0F1FF3F04DCFFE76FF004000390C5
:1009C000FFE7FFE7039806B080BD000080B586B062
:1009D0000A460346059004910020039005980028DC
:1009E0000292019304D1FFE70498042804D3FFE79F
:1009F0006FF0010003900CE004F084FC049804F014
:100A00000DFD002804D0FFE76FF004000390FFE71E
:100A1000FFE7039806B080BDB0B58AB09C46964605
:100A20000C46054609900891079206930020059010
:100A300009980028CDF810C0CDF80CE0029401957B
:100A400004D0FFE76FF00100059021E0099840F223
:100A50004C11C2F2000151F82010C96B40F248124B
:100A6000C2F2000252F82000089A079BDDF818C075
:100A7000009111461A466346DDF800C0E047B0F128
:100A8000FF3F04DCFFE76FF004000590FFE7FFE79E
:100A900005980AB0B0BD000085B00A460346049030
:100AA000039100200290049800280192009304D042
:100AB000FFE76FF00100029000E0FFE7029805B049
:100AC00070470000B0B58AB09C4696460C46054675
:100AD0000990089107920693002005900998002834
:100AE000CDF810C0CDF80CE00294019504D0FFE7DA
:100AF0006FF00100059021E0099840F24C11C2F21C
:100B0000000151F82010096C40F24812C2F20002B4
:100B100052F82000089A079BDDF818C00091114692
:100B20001A466346DDF800C0E047B0F1FF3F04DC41
:100B3000FFE76FF004000590FFE7FFE705980AB0B4
:100B4000B0BD0000FFE7FEE77047000080B596B03B
:100B500040F20800C2F2000005F042FA4FF0FF3008
:100B6000069005F0A1F88020CFF6007005F09AFA03
:100B7000069805F025FA47F61D12C0F6000200207F
:100B80000A214FF0010E05907346CDF810E005F0F4
:100B9000CBF847F62F12C0F6000223210598049BDC
:100BA00005F0C2F840F21000C2F2000005F018FA99
:100BB00047F6EC02C0F60002DC210598049B05F024
:100BC000B3F840F20000C2F2000005F009FA6846EE
:100BD000FF21CFF6007101609120F0223223DDF871
:100BE00014E003907046DDF80CC00291614605F0F8
:100BF00081F9069805F056FA029805F0E1F947F6F2
:100C00003F12C0F6000296210598049B05F08CF86F
:100C100047F61212C0F60002A5210598049B05F0C4
:100C200083F8B42107AA0598049B05F07DF816B057
:100C300080BD000080B5B4B013468C468646339024
:100C400032913192002030902F9040F2D001C2F2C8
:100C50000001CA6801EB42129268D2882D92CA68DC
:100C600001EB4211896889882C912C99CA1D22F0C8
:100C70000702511A2E9130900593CDF810C0CDF88F
:100C80000CE0FFE730982D99884280F0D880FFE78C
:100C900031982C990731C908309A01FB02002B903A
:100CA0002C980730C1080122B2EBD00F029108D076
:100CB000FFE70298022808D0FFE7029803280BD02C
:100CC0000BE02B9800782A9011E02B98017840785F
:100CD00040EA01202A900AE0FFE72B980178427849
:100CE0008078090441EA022108442A90FFE740F293
:100CF000D000C2F20000C16800EB4110C0690228B8
:100D000057D1FFE700202F90FFE72F982C998842BA
:100D100041D2FFE72A982C992F9A891A2E9A1144CA
:100D20000139012202FA01F1084217D0FFE740F22F
:100D3000D000C2F20000C16849014058C1B2C908E0
:100D400000F47C4241EA52114FF4784202EA10204A
:100D500008442F991EAA22F8110017E040F2D00093
:100D6000C2F20000C16800EB41104068C1B2C9087E
:100D700000F47C4241EA52114FF4784202EA10201A
:100D800008442F991EAA22F81100FFE7FFE72F98C9
:100D900001302F90B9E7339832994A1C32922C9B3C
:100DA0006A464FF0010CC2F800C01EAA05F06CF8AC
:100DB00040E000202F90FFE72F982C9988422BD2FB
:100DC000FFE72A982C992F9A891A2E9A11440139F3
:100DD000012202FA01F108420CD0FFE740F2D000F4
:100DE000C2F20000C168490140582F9906AA42F892
:100DF00021000CE040F2D000C2F20000C16800EB1C
:100E0000411040682F9906AA42F82100FFE7FFE74A
:100E10002F9801302F90CFE7339832994A1C3292A5
:100E20002C9B6A464FF0010CC2F800C006AA05F0E0
:100E30002BF8FFE7FFE730980130309022E734B01D
:100E400080BD000081B0EFF3108072B60090FFE724
:100E5000FEE7000080B588B0014607904CF2B37001
:100E60000290029840F60042C4F20222019010461D
:100E7000019A0091114600F01BFB4FF68070029022
:100E8000029941F20000C4F2022000F011FB01209F
:100E90000290029941F20040C4F2022000F008FBE7
:100EA00041F25000C4F20200016821F0010101602A
:100EB00008B080BD80B592B0014611900791FFE760
:100EC00041F25000C4F20200016841F001010160EA
:100ED000006800F001000B900B980690FFE7FFE719
:100EE00041F24C00C4F20200016841F008010160C7
:100EF000006800F008000A900A980590FFE7FFE7F5
:100F000041F24C00C4F20200016841F0100101609E
:100F1000006800F01000099009980490FFE7FFE7CF
:100F200041F24C00C4F20200016841F0200101606E
:100F3000006800F02000089008980390FFE7022066
:100F40000D9003200F900C20109001200E90802116
:100F50000C9140F60041C4F202210CAA029008460E
:100F600001911146009200F0AFFB30200C900198E7
:100F7000009900F0A9FB02980C9041F20040C4F2E5
:100F80000220009900F0A0FB00200E904CF20370AC
:100F90000C900198009900F097FB4FF680700C9030
:100FA00041F20000C4F20220009900F08DFB12B063
:100FB00080BD000080B587B013468C4686460690FB
:100FC000059104920698049950F8212022F001021C
:100FD00040F82120049800280393CDF808C0CDF8EC
:100FE00004E007D1FFE70698049943F2DB0240F8DA
:100FF000212006E00698049943F2D20240F821200D
:10100000FFE70698049900EB81006FF070414160A2
:101010000598049A40F8221004980028009008D0FF
:10102000FFE7009802280AD0FFE7009804280CD0B8
:1010300011E00698016A21F48031016211E00698FE
:10104000016A21F4003101620BE00698016A21F483
:101050008021016205E00698016A21F40021016205
:10106000FFE7002007B080BDB0B588B09C4696462B
:101070000C46054607900691059204930498B0F536
:10108000804FCDF80CC0CDF808E0019400951ED13A
:10109000FFE70798059950F8210000F07F60069956
:1010A0000A684B68D1F808C0D1F80CE042EA031294
:1010B00042EA0C2242EA8E72CB691A43096942EA7B
:1010C000014108430799059A41F8220006E0079874
:1010D00005996FF0704240F82120FFE7002008B02A
:1010E000B0BD000080B588B00A460346079006915F
:1010F00007980699096850F821C02CF0010C40F8B7
:1011000021C00698806808280292019303D1FFE766
:101110004020059002E000200590FFE70598069921
:101120004A688B68D1F80CC0D1F810E0104318431E
:1011300040EA0C0040EA0E004A6910438A691043F5
:10114000CA6910430A6A10434A6A10438A6A104304
:10115000C96A084304900698006B049908430490F8
:101160000698406B0499084304900698C06B049954
:10117000084304900698806B0499084304904FF646
:101180007F30C0F208000390039840F48010039071
:10119000039840F400100390039840F4400003903B
:1011A000039840F4E020039007980699096850F8E6
:1011B000210003998843049908430799069A126805
:1011C00041F822000698006BB0F5801F0FD1FFE7B1
:1011D0000698006800280AD0FFE70798006820F406
:1011E00080100699096B084307990860FFE7069885
:1011F0000068002807D0FFE70698406B07990A6847
:1012000010430860FFE7069890F84000012831D1AC
:10121000FFE70798006A4FF6FF7188430699496C0B
:10122000084307990862069800680028009008D0D3
:10123000FFE7009802280AD0FFE7009804280CD0A6
:1012400011E00798016A41F48031016211E00798CA
:10125000016A41F4003101620BE00798016A41F430
:101260008021016205E00798016A41F400210162D2
:10127000FFE7FFE7002008B080BD000070B588B030
:1012800013468C4686460790069105920798059965
:1012900000EB8100406806990A684C688D68CE684A
:1012A00042EA041242EA052242EA86720C6942EAE4
:1012B00004424C690025CFF6F07505EB0454224337
:1012C0008C69FE3442EA0462C9691143079A059C9D
:1012D00002EB8402516007990968C902002903934F
:1012E000CDF808C0CDF804E0009018D5FFE70798C6
:1012F000406820F470000490069840690021CFF601
:10130000F07101EB0050049908430490079840687D
:1013100020F470000499084307994860FFE7002013
:1013200008B070BD80B584B001460390009100F014
:10133000ADFB02900398019001980130002809D07C
:10134000FFE740F26800C2F200000078019908440B
:101350000190FFE7FFE700F099FBDDF808E0A0EB64
:101360000E00DDF804E0704501D2FFE7F3E704B0BA
:1013700080BD000080B582B040F21010C2F20000C3
:101380000068002801D0FFE727E040F21010C2F209
:1013900000000121016041F25000C4F20200026825
:1013A00022F00102026040F60040C4F202204CF23A
:1013B000B3720191114600F07BF841F20040C4F293
:1013C0000220019900F074F841F20000C4F20220FA
:1013D0004FF6807100F06CF8FFE702B080BD0000AE
:1013E00080B58CB000200B900A900990089007906F
:1013F00040F21410C2F200000068002801D0FFE79C
:1014000054E040F21410C2F2000001210160FFE735
:1014100041F25000C4F20200016841F00101016094
:10142000006800F00100069006980590FFE74CF276
:10143000B3700790022008900021099103220A92BC
:101440000C230B9340F6004CC4F2022C0DF11C0E41
:10145000049060460391714602920193CDF800E03A
:1014600000F032F90120079004980890039909913F
:10147000029A0A92019B0B9341F20040C4F20220AF
:10148000009900F021F94FF68070079004980890B9
:1014900003990991029A0A92019B0B9341F2000071
:1014A000C4F20220009900F00FF9FFE70CB080BDF4
:1014B0008EB00A4603460D900C9100200B900892C6
:1014C0000793FFE70C980B99C840002800F0FA80BA
:1014D000FFE70C980B99012202FA01F108400A90EB
:1014E0000A98002800F0EA80FFE70B9820F003003C
:1014F0004FF26041C4F20201405809900B9800F08D
:101500000300C0000F2101FA00F00999084009907A
:1015100009980D990022C4F202229142069003D14B
:10152000FFE70020059050E00D9840F20041C4F222
:101530000221884203D1FFE70120049042E00D9888
:1015400040F60001C4F20221884203D1FFE70220E5
:10155000039034E00D9840F60041C4F20221884225
:1015600003D1FFE70320029026E00D9841F200012D
:10157000C4F20221884203D1FFE70420019018E061
:101580000D9841F20041C4F20221884203D1FFE7E5
:10159000052000900AE00D9841F60001C4F20221F6
:1015A0000722884208BF06220092FFE700980190B8
:1015B000FFE701980290FFE702980390FFE7039886
:1015C0000490FFE704980590FFE705980B9901F058
:1015D0000301C90088400699814239D1FFE70A9882
:1015E0004FF28041C4F202010A6822EA000008605A
:1015F0000A984FF28441C4F202010A6822EA00000C
:1016000008600A984FF20441C4F202010A6822EA13
:10161000000008600A984FF20041C4F202010A6813
:1016200022EA000008600B9800F00300C0000F21C0
:1016300001FA00F0099009980B9921F003014FF28B
:101640006042C4F202028B5823EA00008850FFE790
:101650000B984000032101FA00F00D9A136818431B
:1016600010600B9800F0070292000F2303FA02F2B9
:101670000D9B6FF0030C0CEA50001844036A23EA38
:10168000020202620B98400001FA00F00D9A936882
:1016900023EA000090600B98012202FA00F00D9AF4
:1016A000536823EA000050600B98400001FA00F0F4
:1016B0000D99CA6822EA0000C860FFE70B98013064
:1016C0000B90FFE60EB070478DB00A4603460C90B3
:1016D0000B9100200A9007920693FFE70B98006891
:1016E0000A99C840002800F0AE81FFE70B98006817
:1016F0000A99012202FA01F108400990099800288C
:1017000000F09D81FFE70B98406800F0030001287E
:1017100007D0FFE70B98406800F0030002282FD1A4
:10172000FFE70C98806808900A984000032101FAAE
:1017300000F0089921EA000008900B98C0680A9907
:101740004900884008990843089008980C998860D7
:101750000C98406808900A98012101FA00F0089955
:1017600021EA000008900B984068C0F300100A9925
:10177000884008990843089008980C994860FFE74A
:101780000B98406800F00300032818D0FFE70C987E
:10179000C06808900A984000032101FA00F00899F7
:1017A00021EA000008900B9880680A994900884057
:1017B00008990843089008980C99C860FFE70B98AF
:1017C000406800F00300022826D1FFE70C980A9930
:1017D0006FF0030202EA51010844006A08900A9877
:1017E00000F0070080000F2101FA00F0089921EABB
:1017F000000008900B9800690A9901F00701890020
:10180000884008990843089008980C990A9B02EAB6
:10181000530211440862FFE70C98006808900A9888
:101820004000032101FA00F0089921EA0000089025
:101830000B98406800F003000A9949008840089915
:101840000843089008980C9908600B9880798007E5
:10185000002800F0F380FFE70A9820F003004FF221
:101860006041C4F20201405808900A9800F0030059
:10187000C0000F2101FA00F0089921EA0000089049
:101880000C980021C4F20221884203D1FFE7002016
:10189000059050E00C9840F20041C4F202218842C9
:1018A00003D1FFE70120049042E00C9840F60001CC
:1018B000C4F20221884203D1FFE70220039034E002
:1018C0000C9840F60041C4F20221884203D1FFE7A0
:1018D0000320029026E00C9841F20001C4F202219C
:1018E000884203D1FFE70420019018E00C9841F2F0
:1018F0000041C4F20221884203D1FFE70520009095
:101900000AE00C9841F60001C4F202210722884245
:1019100008BF06220092FFE700980190FFE70198B8
:101920000290FFE702980390FFE703980490FFE717
:1019300004980590FFE705980A9901F00301C90092
:10194000884008990843089008980A9921F00301F3
:101950004FF26042C4F2020288504FF20040C4F2DB
:101960000200006808900998089921EA0000089090
:101970000B988079C006002805D5FFE709980899DB
:1019800008430890FFE708984FF20041C4F20201B3
:1019900008604FF20440C4F2020000680890099801
:1019A000089921EA000008900B98807980060028A9
:1019B00005D5FFE70998089908430890FFE70898BC
:1019C0004FF20441C4F2020108604FF28440C4F2B5
:1019D0000200006808900998089921EA0000089020
:1019E0000B9880798007002805D5FFE709980899AA
:1019F00008430890FFE708984FF28441C4F20201BF
:101A000008604FF28040C4F2020000680890099814
:101A1000089921EA000008900B988079C0070028F7
:101A200005D0FFE70998089908430890FFE7089850
:101A30004FF28041C4F202010860FFE7FFE70A9815
:101A400001300A904AE60DB07047000080B585B0BD
:101A500013468C4686460490ADF80E108DF80D2086
:101A60009DF80D0000280293CDF804C0CDF800E0E9
:101A700005D0FFE7BDF80E000499886104E0BDF8C9
:101A80000E0004998862FFE705B080BD40F21C207B
:101A9000C2F200000068704740F26800C2F2000025
:101AA000007840F21C21C2F200010A68104408606C
:101AB0007047000080B582B000208DF80700042137
:101AC0000090084600F0A4F803F0BEFF009800F074
:101AD0000FF8002804D0FFE701208DF8070002E08E
:101AE00000F04EF8FFE79DF8070002B080BD00004F
:101AF00080B584B00146039000208DF80B0040F2C1
:101B00006800C2F2000000780028019130D0FFE7A1
:101B100040F26400C2F20000006840F26801C2F2C4
:101B2000000109784FF47A72B2FBF1F1B0FBF1F0E9
:101B300001F0D4FE002816D1FFE7039807280DD83E
:101B4000FFE703994FF0FF30002200F03DF80398C3
:101B500040F26C01C2F20001086003E001208DF840
:101B60000B00FFE703E001208DF80B00FFE703E027
:101B700001208DF80B00FFE79DF80B0004B080BD3D
:101B800084B0FFE741F26000C4F20200016841F056
:101B900001010160006800F00100039003980190CA
:101BA000FFE7FFE741F25800C4F20200016841F08C
:101BB00080510160006800F080500290029800900F
:101BC000FFE704B07047000080B58AB013468C462A
:101BD00086468DF82700089107920593CDF810C02E
:101BE000CDF80CE004F06EFA06909DF927000699F6
:101BF000089A079B0290084611461A4602F02AF9F5
:101C0000029901900846019904F064FA0AB080BD77
:101C100080B582B0014601900198009104F080FAED
:101C200002B080BD80B588B00146069047F2000042
:101C3000C4F20000006800F4C0600490039100F05A
:101C400087F8B0F5004F04D1FFE701208DF81F00A1
:101C500067E047F20C00C4F20000006800040028AE
:101C600004D5FFE701208DF81F005AE0049806997B
:101C7000884204D1FFE700208DF81F0051E047F2B1
:101C80000000C4F20000016821F4C061069A11430B
:101C9000016040F26400C2F200000068400945F6AD
:101CA000C521C0F67C21A0FB0101C909322201FB3C
:101CB00002F14CF6CD42CCF6CC42A1FB021201233C
:101CC00003EBD202059202900191FFE747F2140064
:101CD000C4F200000068002140050028009106D5EC
:101CE000FFE70598002818BF01200090FFE7009843
:101CF000C007002804D0FFE7059801380590E5E704
:101D000047F21400C4F2000000684005002804D522
:101D1000FFE703208DF81F0003E000208DF81F006F
:101D2000FFE79DF81F0008B080BD000047F20400E7
:101D3000C4F20000016841F40071016070470000C6
:101D400047F20000C4F20000006800F4C060704771
:101D500082B047F21000C4F20000006800909DF8C5
:101D60000100C006002804D5FFE74FF48050019021
:101D70000DE09DF801000006002804D4FFE74FF4B1
:101D80000040019002E000200190FFE7FFE701988A
:101D900002B0704747F20000C4F20000016841F44D
:101DA000807101607047000041F20000C4F202003F
:101DB000016841F0040101607047000080B58CB0FB
:101DC00001460B9000208DF82B008DF82A000B980F
:101DD00000680005002805914BD5FFE70B98C06E01
:101DE0000028049019D0FFE7049820281DD0FFE7B1
:101DF0000498402808D0FFE7049860281DD0FFE72A
:101E00000498802819D019E041F20C00C4F20200B5
:101E1000016841F48031016014E00B980430002126
:101E200002F082F88DF82B000CE00B982030002196
:101E300002F0ACF98DF82B0004E003E001208DF8EE
:101E40002B00FFE79DF82B0000280CD1FFE741F2A3
:101E50009C00C4F20200016821F0E0010B9AD26EEE
:101E60001143016004E09DF82B008DF82A00FFE784
:101E7000FFE70B980068C00400284FD5FFE70B98D8
:101E8000006F002803901DD0FFE70398B0F5807F16
:101E900020D0FFE70398B0F5007F0AD0FFE7039852
:101EA000B0F5407F1ED0FFE70398B0F5806F19D0E2
:101EB00019E041F20C00C4F20200016841F48031E3
:101EC000016014E00B980430002102F02DF88DF829
:101ED0002B000CE00B982030002102F057F98DF810
:101EE0002B0004E003E001208DF82B00FFE79DF8B4
:101EF0002B0000280CD1FFE741F29C00C4F2020045
:101F0000016821F4E0610B9A126F1143016004E053
:101F10009DF82B008DF82A00FFE7FFE70B9800687B
:101F20008003002840F1D280FFE700208DF81F00D9
:101F300041F25800C4F202000068C000002814D426
:101F4000FFE7FFE741F25800C4F20200016841F0E8
:101F500080510160006800F0805006900698029061
:101F6000FFE701208DF81F00FFE747F20000C4F2F1
:101F70000000016841F480710160FFF787FD08905F
:101F8000FFE747F20000C4F200000068C005002827
:101F900018D4FFE7FFF77AFDDDF820E0A0EB0E0094
:101FA00003280ED3FFE747F20000C4F200000068E8
:101FB000C005002804D4FFE703208DF82B00FFE7BD
:101FC00000E0DEE79DF82B0000286BD1FFE741F22F
:101FD0009000C4F20200006800F440700990099873
:101FE00000281AD0FFE709980B99D1F89010884281
:101FF00013D0FFE741F29000C4F20200016821F41F
:1020000040710991016841F480310160016821F457
:102010008031016009990160FFE70998C007002835
:1020200028D0FFE7FFF732FD0890FFE741F290006C
:10203000C4F202000068800700281AD4FFE7FFF707
:1020400025FDDDF820E0A0EB0E0041F2893E704551
:102050000ED3FFE741F29000C4F20200006880074F
:10206000002804D4FFE703208DF82B00FFE700E0F1
:10207000DCE7FFE79DF82B0000280DD1FFE741F2D8
:102080009000C4F20200016821F440710B9AD2F86A
:1020900090201143016004E09DF82B008DF82A0088
:1020A000FFE704E09DF82B008DF82A00FFE79DF87C
:1020B0001F00012809D1FFE741F25800C4F20200D5
:1020C000016821F080510160FFE7FFE70B9800688D
:1020D000C00700280CD0FFE741F28800C4F20200DC
:1020E000016821F003010B9A526B11430160FFE775
:1020F0000B980068800700280CD5FFE741F28800A4
:10210000C4F20200016821F00C010B9A926B11439A
:102110000160FFE70B980068400700280CD5FFE737
:1021200041F28800C4F20200016821F030010B9AEC
:10213000D26B11430160FFE70B980068000700288D
:102140000CD5FFE741F28800C4F20200016821F0DB
:10215000C0010B9A126C11430160FFE70B980068F5
:10216000C00600280CD5FFE741F28800C4F2020047
:10217000016821F440710B9A526C11430160FFE732
:102180000B980068800600280CD5FFE741F2880014
:10219000C4F20200016821F440610B9A926C114371
:1021A0000160FFE70B980068800500280CD5FFE769
:1021B00041F28800C4F20200016821F440210B9A28
:1021C000D26D11430160FFE70B98006840050028BD
:1021D0000CD5FFE741F28800C4F20200016821F447
:1021E00040110B9A126E11430160FFE70B980068D3
:1021F000400200280CD5FFE741F28800C4F202003B
:10220000016821F440010B9A526E11430160FFE70F
:102210000B980068800100283DD5FFE70B98806E81
:10222000002801900AD0FFE70198B0F1807F06D026
:10223000FFE70198B0F1007F0AD011E014E041F20D
:102240000C00C4F20200016841F4801101600BE04F
:102250000B980430002101F067FE8DF82B0003E09D
:1022600001208DF82B00FFE79DF82B0000280CD1F2
:10227000FFE741F28800C4F20200016821F04071DA
:102280000B9A926E1143016004E09DF82B008DF8CB
:102290002A00FFE7FFE70B980068400600280CD5EE
:1022A000FFE741F28800C4F20200016821F44051C6
:1022B0000B9AD26C11430160FFE70B98006800068F
:1022C00000280CD5FFE741F28800C4F20200016843
:1022D00021F440410B9A126D11430160FFE70B9806
:1022E0000068C00500280CD5FFE741F28800C4F261
:1022F0000200016821F440310B9A526D11430160D4
:10230000FFE70B980068C00200280CD5FFE741F2F8
:102310009C00C4F20200016821F003010B9A926D47
:1023200011430160FFE70B9800688004002834D552
:10233000FFE741F28800C4F20200016821F0406129
:102340000B9A526F114301600B98406FB0F1006F10
:1023500009D1FFE741F20C00C4F20200016841F428
:102360008011016018E00B98406FB0F1806F12D1BE
:10237000FFE70B980430012101F0D6FD8DF82B000A
:102380009DF82B00002805D0FFE79DF82B008DF865
:102390002A00FFE7FFE7FFE7FFE70B98006800036D
:1023A00000285FD5FFE7FFE70B98806FB0F5804FFF
:1023B00009D1FFE741F29C00C4F20200016841F438
:1023C0008041016013E041F28800C4F2020001681C
:1023D00021F040610B9A926F1143016041F29C0021
:1023E000C4F20200016821F480410160FFE7FFE7C9
:1023F0000B98806FB0F1806F12D1FFE70B9804301B
:10240000012101F091FD8DF82B009DF82B00002893
:1024100005D0FFE79DF82B008DF82A00FFE720E0AC
:102420000B98806FB0F1006F09D1FFE741F20C000B
:10243000C4F20200016841F48011016010E00B98C1
:10244000806FB0F5804F09D1FFE741F20C00C4F274
:102450000200016841F48031016000E0FFE7FFE71E
:10246000FFE7FFE70B9800684003002835D5FFE73A
:1024700041F28800C4F20200016821F040610B9A29
:10248000D26F114301600B98C06FB0F1006F09D19A
:10249000FFE741F20C00C4F20200016841F4801130
:1024A000016019E00B98C06FB0F1806F12D1FFE7A7
:1024B0000B980430012101F037FD8DF82B009DF8B9
:1024C0002B00002805D0FFE79DF82B008DF82A008F
:1024D000FFE700E0FFE7FFE7FFE70B980068400435
:1024E000002826D5FFE741F28800C4F20200016807
:1024F00021F040510B9AD2F88020114301600B98D3
:10250000D0F88000B0F1805F12D1FFE70B98043063
:10251000022101F009FD8DF82B009DF82B00002809
:1025200005D0FFE79DF82B008DF82A00FFE7FFE7B5
:10253000FFE70B980068C00300280DD5FFE741F2C4
:102540009C00C4F20200016821F004010B9AD2F849
:10255000842011430160FFE70B9800688002002887
:102560000DD5FFE741F29C00C4F20200016821F0A2
:1025700018010B9AD2F8882011430160FFE70B98ED
:102580000068C00100281DD5FFE741F29C00C4F29D
:102590000200016821F440110B9AD2F88C201143FB
:1025A00001600B98D0F88C00B0F5001F09D1FFE74F
:1025B00041F20C00C4F20200016841F48011016094
:1025C000FFE7FFE79DF82A000CB080BD80B588B01A
:1025D0000A460346069005910020029006980028BE
:1025E0000192009304D1FFE701208DF81F0090E1D4
:1025F000059842F20001C4F20201096801F00F01DE
:10260000884216D9FFE742F20000C4F202000168D6
:1026100021F00F01059A11430160006800F00F00DE
:102620000599884204D0FFE701208DF81F0070E172
:10263000FFE7069800688007002819D5FFE706988D
:10264000806841F20801C4F20201096801F0F0015A
:1026500088420CD9FFE741F20800C4F20200016889
:1026600021F0F001069A926811430160FFE7FFE74D
:1026700006980068C007002800F0C780FFE70698AA
:10268000406803282FD1FFE741F20000C4F20200A6
:1026900000688001002804D4FFE701208DF81F00A6
:1026A00037E101F057FE039003984BF2014EC0F260
:1026B000C44E704516D3FFE741F20800C4F2020091
:1026C000006810F0F00F0CD1FFE741F20800C4F2EF
:1026D00002000168082262F3071101608020029065
:1026E000FFE7FFE756E00698406802280ED1FFE7B3
:1026F00041F20000C4F2020000688003002804D404
:10270000FFE701208DF81F0003E121E006984068F3
:1027100000280ED1FFE741F20000C4F20200006879
:102720008007002804D4FFE701208DF81F00F0E0A7
:102730000DE041F20000C4F20200006840050028EC
:1027400004D4FFE701208DF81F00E2E0FFE7FFE778
:1027500000F0FAF8039003984BF2014EC0F2C44E19
:10276000704516D3FFE741F20800C4F2020000688A
:1027700010F0F00F0CD1FFE741F20800C4F20200A4
:102780000168082262F30711016080200290FFE7D0
:10279000FFE7FFE741F20800C4F20200016821F000
:1027A0000301069A526811430160FFF76FF9049024
:1027B000FFE741F20800C4F20200006800F00C00DC
:1027C00006994968B0EB810F1ED0FFE7FFF75EF96D
:1027D000DDF810E0A0EB0E0041F2893E704512D307
:1027E000FFE741F20800C4F20200006800F00C00AC
:1027F00006994968B0EB810F04D0FFE703208DF8FC
:102800001F0086E0FFE7D4E7FFE70298802809D1A0
:10281000FFE741F20800C4F20200016821F0F00174
:102820000160FFE7069800688007002819D5FFE7D8
:102830000698806841F20801C4F20201096801F0BB
:10284000F00188420CD2FFE741F20800C4F2020016
:10285000016821F0F001069A926811430160FFE7D8
:10286000FFE7059842F20001C4F20201096801F095
:102870000F01884216D2FFE742F20000C4F20200C4
:10288000016821F00F01059A11430160006800F012
:102890000F000599884204D0FFE701208DF81F0042
:1028A00037E0FFE706980068400700280CD5FFE7EF
:1028B00041F20800C4F20200016821F4E061069AC6
:1028C000D26811430160FFE70698006800070028FE
:1028D0000DD5FFE741F20800C4F20200016821F4BF
:1028E0006051069A126941EAC2010160FFE700F0F7
:1028F00015F840F2640EC2F2000ECEF8000040F26D
:102900006C00C2F200000068FFF7F2F88DF81F00BB
:10291000FFE79DF81F0008B080BD000080B500F003
:1029200013F841F2080EC4F2020EDEF800E05FFA7E
:102930008EFE4FEA1E1E46F25621C0F6000111F827
:102940000E10C84080BD000089B00020089007909C
:1029500041F20800C4F20200006800F00C0002908E
:1029600041F20C00C4F20200006800F00300019084
:102970000298002808D0FFE702980C282FD1FFE723
:10298000019801282BD1FFE741F20000C4F20200B8
:1029900000680007002809D4FFE741F29400C4F260
:1029A00002000068C0F30320089008E041F2000034
:1029B000C4F202000068C0B200090890FFE708985E
:1029C00047F6AC01C0F6000151F8200008900298CB
:1029D000002803D1FFE708980790FFE716E0029868
:1029E000042806D1FFE742F20040C0F2F40007904D
:1029F0000BE00298082806D1FFE741F20020C0F260
:102A00007A00079000E0FFE7FFE7FFE702980C2855
:102A100060D1FFE741F20C00C4F20200016801F04E
:102A2000030105910068C0B2012101EB1010039071
:102A30000598012800902CD0FFE70098022804D0C8
:102A4000FFE70098032812D024E0039842F20041E7
:102A5000C0F2F401B1FBF0F041F20C01C4F202014A
:102A60000968C1F3062100FB01F0069021E00398FC
:102A700041F20021C0F27A01B1FBF0F041F20C0109
:102A8000C4F202010968C1F3062100FB01F00690BF
:102A90000FE0FFE708980399B0FBF1F041F20C0159
:102AA000C4F202010968C1F3062100FB01F006909F
:102AB000FFE741F20C00C4F20200006800F0C060C1
:102AC000022101EB1060049006980499B0FBF1F02C
:102AD0000790FFE7079809B070470000B0B58CB0C9
:102AE00001460A900A980028039105D1FFE70120CA
:102AF0008DF82F0000F054BE41F20800C4F202002D
:102B0000006800F00C00079041F20C00C4F20200D3
:102B1000006800F0030006900A980068C0060028CC
:102B200040F13F81FFE7079800280AD0FFE70798A8
:102B30000C2840F0B480FFE70698012840F0AF80F1
:102B4000FFE741F20000C4F202000068800700289D
:102B50000AD5FFE70A98C069002805D1FFE70120E0
:102B60008DF82F0000F01CBE0A98406A41F2000167
:102B7000C4F20201096809070029029009D5FFE79C
:102B800041F20000C4F20200006800F0F000019081
:102B900009E041F29400C4F20200006800F47060A1
:102BA00000090190FFE70198029981422AD9FFE7C5
:102BB0000A98406A01F048FC002805D0FFE7012090
:102BC0008DF82F0000F0ECBDFFE741F20000C4F2E9
:102BD0000200016841F008010160016821F0F00184
:102BE0000A9A526A11430160FFE741F20400C4F2FD
:102BF0000200016821F47F410A9A126A41EA022127
:102C000001602EE0FFE741F20000C4F2020001681B
:102C100041F008010160016821F0F0010A9A526A4E
:102C200011430160FFE741F20400C4F202000168B1
:102C300021F47F410A9A126A41EA02210160079851
:102C400000280DD1FFE70A98406A01F0FDFB00283B
:102C500005D0FFE701208DF82F0000F0A1BDFFE7B0
:102C6000FFE7FFF75BFE40F2640EC2F2000ECEF803
:102C7000000040F26C00C2F200000068FEF738FF6E
:102C80008DF823009DF82300002806D0FFE79DF86B
:102C900023008DF82F0000F083BDFFE780E00A9845
:102CA000C06900284CD0FFE741F20000C4F20200E6
:102CB000016841F001010160FEF7E8FE0990FFE7BD
:102CC00041F20000C4F2020000688007002819D415
:102CD000FFE7FEF7DBFEDDF824E0A0EB0E000328A3
:102CE0000FD3FFE741F20000C4F202000068800742
:102CF000002805D4FFE703208DF82F0000F050BD19
:102D0000FFE7DDE7FFE741F20000C4F202000168DF
:102D100041F008010160016821F0F0010A9A526A4D
:102D200011430160FFE741F20400C4F202000168B0
:102D300021F47F410A9A126A41EA022101602EE0E1
:102D400041F20000C4F20200016821F001010160BB
:102D5000FEF79CFE0990FFE741F20000C4F202007A
:102D600000688007002819D5FFE7FEF78FFEDDF821
:102D700024E0A0EB0E0003280FD3FFE741F2000090
:102D8000C4F2020000688007002805D5FFE7032091
:102D90008DF82F0000F004BDFFE7DDE7FFE7FFE758
:102DA000FFE70A980068C007002800F0A880FFE746
:102DB0000798082808D0FFE707980C2818D1FFE7E4
:102DC0000698032814D1FFE741F20000C4F2020084
:102DD0000068800300280AD5FFE70A9840680028A9
:102DE00005D1FFE701208DF82F0000F0D9BC85E068
:102DF000FFE70A984068B0F5803F09D1FFE741F24C
:102E00000000C4F20200016841F48031016020E05A
:102E10000A984068B0F5A02F0DD1FFE741F20000FD
:102E2000C4F20200016841F480210160016841F4AC
:102E3000803101600CE041F20000C4F20200016840
:102E400021F480310160016821F480210160FFE7F5
:102E5000FFE7FFE70A984068002827D0FFE7FEF762
:102E600015FE0990FFE741F20000C4F2020000687D
:102E70008003002819D4FFE7FEF708FEDDF824E000
:102E8000A0EB0E0065280FD3FFE741F20000C4F26B
:102E9000020000688003002805D4FFE703208DF8B6
:102EA0002F0000F07DBCFFE7DDE726E0FEF7EEFD3A
:102EB0000990FFE741F20000C4F2020000688003BD
:102EC000002819D5FFE7FEF7E1FDDDF824E0A0EBCF
:102ED0000E0065280FD3FFE741F20000C4F20200A4
:102EE00000688003002805D5FFE703208DF82F0038
:102EF00000F056BCFFE7DDE7FFE7FFE7FFE70A98D2
:102F000000688007002840F19D80FFE707980428AB
:102F100008D0FFE707980C2825D1FFE7069802287C
:102F200021D1FFE741F20000C4F202000068400531
:102F300000280AD5FFE70A98C068002805D1FFE7F6
:102F400001208DF82F0000F02BBC41F20400C4F2E8
:102F50000200016821F0FE410A9A126941EA026109
:102F60000160FFE76DE00A98C06800283AD0FFE7EB
:102F700041F20000C4F20200016841F48071016076
:102F8000FEF784FD0990FFE741F20000C4F2020061
:102F900000684005002818D4FFE7FEF777FDDDF84C
:102FA00024E0A0EB0E0003280ED3FFE741F200005F
:102FB000C4F2020000684005002804D4FFE70320A3
:102FC0008DF82F00ECE3FFE7DEE741F20400C4F2E6
:102FD0000200016821F0FE410A9A126941EA026189
:102FE00001602DE041F20000C4F20200016821F40A
:102FF00080710160FEF74AFD0990FFE741F2000091
:10300000C4F2020000684005002818D5FFE7FEF76B
:103010003DFDDDF824E0A0EB0E0003280ED3FFE712
:1030200041F20000C4F2020000684005002804D507
:10303000FFE703208DF82F00B2E3FFE7DEE7FFE7AD
:10304000FFE7FFE70A9800680007002879D5FFE747
:103050000A984069002845D0FFE70A98806900284F
:1030600009D1FFE741F29400C4F20200016821F0A7
:103070001001016008E041F29400C4F2020001680E
:1030800041F010010160FFE741F29400C4F2020038
:10309000016841F001010160FEF7F8FC0990FFE7CB
:1030A00041F29400C4F2020000688007002818D49E
:1030B000FFE7FEF7EBFCDDF824E0A0EB0E000828AC
:1030C0000ED3FFE741F29400C4F2020000688007CB
:1030D000002804D4FFE703208DF82F0060E3FFE70A
:1030E000DEE72DE041F29400C4F20200016821F015
:1030F00001010160FEF7CAFC0990FFE741F294006C
:10310000C4F2020000688007002818D5FFE7FEF728
:10311000BDFCDDF824E0A0EB0E0008280ED3FFE78D
:1031200041F29400C4F2020000688007002804D530
:10313000FFE703208DF82F0032E3FFE7DEE7FFE72C
:10314000FFE70A9800684007002840F18381FFE705
:1031500000208DF8170041F25800C4F20200006808
:10316000C000002814D4FFE7FFE741F25800C4F282
:103170000200016841F080510160006800F0805059
:10318000049004980090FFE701208DF81700FFE7F6
:1031900047F20000C4F200000068C00500282ED4E9
:1031A000FFE747F20000C4F20000016841F48071BB
:1031B0000160FEF76BFC0990FFE747F20000C4F2E4
:1031C00000000068C005002818D4FFE7FEF75EFC89
:1031D000DDF824E0A0EB0E0003280ED3FFE747F252
:1031E0000000C4F200000068C005002804D4FFE716
:1031F00003208DF82F00D3E2FFE7DEE7FFE70A9810
:10320000007AC00700281DD0FFE70A98007A40071F
:1032100000280DD5FFE741F29000C4F202000168DA
:1032200041F004010160016841F00101016008E022
:1032300041F29000C4F20200016841F00101016016
:10324000FFE70CE041F29000C4F20200016821F0B7
:1032500001010160016821F004010160FFE70A98A3
:103260008068002800F08980FFE7FEF70FFC0990D6
:10327000FFE741F29000C4F20200006880070028D6
:103280001AD4FFE7FEF702FCDDF824E0A0EB0E0005
:1032900041F2893E70450ED3FFE741F29000C4F23F
:1032A000020000688007002804D4FFE703208DF89F
:1032B0002F0075E2FFE7DCE70A98007A0006002895
:1032C0002DD5FFE741F29000C4F20200016841F001
:1032D00080010160FFE741F29000C4F20200006843
:1032E000000500281AD4FFE7FEF7D0FBDDF824E044
:1032F000A0EB0E0041F2893E70450ED3FFE741F28C
:103300009000C4F2020000680005002804D4FFE722
:1033100003208DF82F0043E2FFE7DCE72CE041F2C9
:103320009000C4F20200016821F080010160FFE713
:1033300041F29000C4F202000068000500281AD58E
:10334000FFE7FEF7A3FBDDF824E0A0EB0E0041F25F
:10335000893E70450ED3FFE741F29000C4F20200AF
:1033600000680005002804D5FFE703208DF82F0032
:1033700016E2FFE7DCE7FFE75DE0FEF787FB099079
:10338000FFE741F29000C4F20200006880070028C5
:103390001AD5FFE7FEF77AFBDDF824E0A0EB0E007C
:1033A00041F2893E70450ED3FFE741F29000C4F22E
:1033B000020000688007002804D5FFE703208DF88D
:1033C0002F00EDE1FFE7DCE741F29000C4F20200DC
:1033D0000068000600282DD5FFE741F29000C4F2F6
:1033E0000200016821F080010160FFE741F29000D6
:1033F000C4F202000068000500281AD5FFE7FEF7B6
:1034000045FBDDF824E0A0EB0E0041F2893E70455B
:103410000ED3FFE741F29000C4F2020000680005FD
:10342000002804D5FFE703208DF82F00B8E1FFE75F
:10343000DCE7FFE7FFE79DF81700012809D1FFE768
:1034400041F25800C4F20200016821F0805101608D
:10345000FFE7FFE70A9800688006002862D5FFE7CB
:103460000A98806A00282ED0FFE741F29800C4F243
:103470000200016841F001010160FEF707FB0990BD
:10348000FFE741F29800C4F20200006880070028BC
:1034900018D4FFE7FEF7FAFADDF824E0A0EB0E00FF
:1034A00003280ED3FFE741F29800C4F2020000683F
:1034B0008007002804D4FFE703208DF82F006FE178
:1034C000FFE7DEE72DE041F29800C4F20200016858
:1034D00021F001010160FEF7D9FA0990FFE741F2FE
:1034E0009800C4F2020000688007002818D5FFE7A2
:1034F000FEF7CCFADDF824E0A0EB0E0003280ED393
:10350000FFE741F29800C4F202000068800700283B
:1035100004D5FFE703208DF82F0041E1FFE7DEE748
:10352000FFE7FFE70A98C06A002800F03581FFE74F
:1035300041F20800C4F20200006800F00C000C2800
:1035400000F0D180FFE70A98C06A022840F091801D
:10355000FFE741F20000C4F20200016821F080712F
:103560000160FEF793FA0990FFE741F20000C4F210
:10357000020000688001002818D5FFE7FEF786FAF0
:10358000DDF824E0A0EB0E0003280ED3FFE741F2A4
:103590000000C4F2020000688001002804D5FFE7A3
:1035A00003208DF82F00FBE0FFE7DEE741F20C007F
:1035B000C4F20200016848F20C02C0F29F121140EE
:1035C0000A9A136BD2F834C0D2F838E0D46B6FF09B
:1035D0000F0505EB0C1C43EA0C0343EA0E23D2F85B
:1035E00040C040F2000ECFF6E07E0EEA0C5CACF577
:1035F000001C43EA0C03526C4FF07E4C0CEA026252
:1036000002F17E421A4342EAC4621143016041F270
:103610000001C4F202010A6842F080720A60016887
:1036200041F080710160FEF731FA0990FFE741F245
:103630000000C4F2020000688001002818D4FFE7EF
:10364000FEF724FADDF824E0A0EB0E0003280ED3E9
:10365000FFE741F20000C4F2020000688001002888
:1036600004D4FFE703208DF82F0099E0FFE7DEE7A1
:1036700038E041F20000C4F20200016821F08071DC
:103680000160FEF703FA0990FFE741F20000C4F27F
:10369000020000688001002818D5FFE7FEF7F6F960
:1036A000DDF824E0A0EB0E0003280ED3FFE741F283
:1036B0000000C4F2020000688001002804D5FFE782
:1036C00003208DF82F006BE0FFE7DEE741F20C00EE
:1036D000C4F2020001684FF6FC72CFF6EE621140B0
:1036E0000160FFE757E00A98C06A012804D1FFE7AC
:1036F00001208DF82F0053E041F20C00C4F20200CB
:1037000000680690069800F003000A99096B884249
:103710003BD1FFE7069800F0F0000A99496B6FF083
:103720000F0202EB011188422FD1FFE7069800F447
:10373000FE400A99896BB0EB012F26D1FFE706986E
:1037400000F078400A99C96BB0EBC16F1DD1FFE75B
:10375000069800F4C0000A99096C0022CFF6E072C6
:1037600002EA0151A1F5001188420ED1FFE7069847
:1037700000F0C0600A99496C4FF07E4202EA016194
:1037800001F17E41884204D0FFE701208DF82F002F
:1037900006E0FFE7FFE7FFE700208DF82F00FFE7D7
:1037A0009DF82F000CB0B0BD80B584B001460390E9
:1037B0000398029100F07EF803980168D0F804E0C5
:1037C000826808467146FDF7F5FB0399002281F8EF
:1037D00051200190FFE70398002180F85010FFE787
:1037E000002004B080BD000082B001460190019825
:1037F00090F85100009102B07047000080B58EB083
:1038000013468C4686460C900B910A920C98002821
:103810000993CDF820C0CDF81CE004D1FFE70120CA
:103820008DF8370041E00C9890F85100002808D13D
:10383000FFE70C98002180F850100C9800F044F835
:10384000FFE70C9850F8081B069008460699FDF70C
:1038500049FC0C99DDF82CE00A688968059010464F
:1038600004917146049AFDF709FD0C990A9AD1F862
:1038700004E08B68C96A03907046029111461A46AB
:10388000029BFDF7F1FB0C990A68896852F8213018
:1038900043F0010342F821300C99012281F85120B4
:1038A00000218DF837100190FFE79DF837000EB02A
:1038B00080BD000080B582B0014601900091FDF707
:1038C00059FD02B080BD000080B582B00146019074
:1038D0000091FDF785FD02B080BD000080B582B08B
:1038E000014601900198009102F01AF802B080BDE3
:1038F000FFE7FEE780B582B00020019040F2C410DF
:10390000C2F200000090FDF7A5FA0098FFF74CFF07
:10391000002804D0FFE76FF003000190FFE7019853
:1039200002B080BD80B582B0FEF7B0F8019001987A
:1039300002B080BD80B582B00020019040F2C41179
:10394000C2F200010022C4F202420A6040F20412F4
:10395000C4F202424A6088600846FFF745FF00282B
:1039600012D1FFE740F2C410C2F200000090FDF750
:10397000A1FA009800F0CEF8002804D0FFE76FF01D
:1039800007000190FFE7FFE7019802B080BD00004B
:10399000B0B58AB09C4696460C460546ADF8260062
:1039A000ADF8241008920793002006900590BDF80A
:1039B00026000128CDF80CC0CDF808E00194009550
:1039C00008D1FFE70898002804D0FFE707980028EF
:1039D00004D1FFE76FF00100069021E0BDF824005C
:1039E0004FF0C0410880FFE705980799B0EB410F01
:1039F00015D2FFE70220C6F200000088ADF81200E1
:103A00009DF812000899059A88549DF813000899AA
:103A1000059A11444870059802300590E4E7FFE7E5
:103A200006980AB0B0BD000086B00A46034605906D
:103A300004910020039002900598002801920093C1
:103A400004D0FFE70498002804D1FFE76FF00100DD
:103A5000039015E0FFE702980499B0EB410F0ED2F6
:103A6000FFE70598029942185278405C40EA02202C
:103A70004FF0C0410880029802300290EBE7FFE768
:103A8000039806B070470000B0B589B09C469646D2
:103A90000C460546ADF82200ADF8201007920693BB
:103AA000002005900490BDF822000128CDF80CC03C
:103AB000CDF808E00194009508D1FFE707980028A9
:103AC00004D0FFE70698002804D1FFE76FF001005B
:103AD00005901BE0BDF820004FF0C0410880FFE7D3
:103AE00004980699B0EB410F0FD2FFE707980499AD
:103AF00042185278405C40EA02200221C6F20001DE
:103B00000880049802300490EAE7FFE7059809B0BE
:103B1000B0BD000080B584B0014603900398002238
:103B2000C260039802610398102343610398826185
:103B30000398C2610398026203984FF48053436272
:103B4000039882620398C2620398026303984263F7
:103B50000398826303984FF40013C36303980264CD
:103B600003984264039880F8482003980123C364B3
:103B700040F27010C2F20000036043604FF0200C6E
:103B8000C0F808C0C26002614FF0020CC0F814C057
:103B9000C0F818C0C26140F25012C2F200024FF0E9
:103BA000050EC2F800E0536003239360C2F810C012
:103BB0004369536183699361C369D361039B029035
:103BC0001846029B01911946FFF718FE04B080BD0C
:103BD00080B5A4B0002023902290219020901F90C7
:103BE000FFE741F24C00C4F20200016841F010010D
:103BF0000160006800F010001E901E981690FFE70C
:103C0000FFE741F24C00C4F20200016841F00201FA
:103C10000160006800F002001D901D981590FFE7FC
:103C2000FFE741F24C00C4F20200016841F040019C
:103C30000160006800F040001C901C981490FFE7A1
:103C4000FEF774F8FFE741F24C00C4F2020001688D
:103C500041F008010160006800F008001B901B980B
:103C60001390FFE7FFE741F24C00C4F20200016845
:103C700041F004010160006800F004001A901A98F5
:103C80001290FFE7FFE741F24C00C4F20200016826
:103C900041F001010160006800F0010019901998DD
:103CA0001190FFE7FFE741F24C00C4F20200016807
:103CB00041F020010160006800F020001890189881
:103CC0001090FFE7FFE741F24C00C4F202000168E8
:103CD00041F080010160006800F0800017901798A3
:103CE0000F90FFE741F60000C4F2022041F20211FA
:103CF00000220E900D910C92FDF7A8FE40F60040B8
:103D0000C4F2022008210B900A910C9AFDF79EFE46
:103D100040F20040C4F202202021099008910C9A40
:103D2000FDF794FE0020C4F202204FF4807107904A
:103D300006910C9AFDF78AFE41F60040C4F202207B
:103D40000121059004910C9AFDF780FE41F200409C
:103D5000C4F202204FF45841039002910C9AFDF7EF
:103D600075FE0D981F90049920910C9A2192229231
:103D70000DF17C0E0E987146CDF804E0FDF7A4FC21
:103D80004FF400501F900C982090219040F60000B6
:103D9000C4F202200199FDF797FC0A981F9004993C
:103DA00020910C9A219222920B980199FDF78CFC9C
:103DB0000E201F904FF4881020900C992191039AA7
:103DC000009010460199FDF77FFC08981F90049918
:103DD00020910C9A2192229209980199FDF774FC86
:103DE00006981F90049920910C9A2192229207988C
:103DF0000199FDF769FC04981F9020900C9921917E
:103E0000229105980199FDF75FFC40201F900098D2
:103E100020900C9921910E980199FDF755FC02987C
:103E20001F90049920910C9A219222920398019953
:103E3000FDF74AFC4FF480401F900C982090219091
:103E400009980199FDF740FC24B080BDFFE7FEE72B
:103E5000FFE7FEE780B58BB013468C4686460A9096
:103E6000099108920A9800F0070007900798C0F19E
:103E7000070004280493CDF80CC0CDF808E003D364
:103E8000FFE70320019004E00798C0F107000190CC
:103E9000FFE70198069007980330062803D8FFE74C
:103EA0000020009003E0079804380090FFE7009896
:103EB000059009980699012202FA01F1013908409A
:103EC00005998840089B02FA01F10139194008431D
:103ED0000BB080BD7047000080B5A6B001A894214A
:103EE0000090FCF7FFF94FF49040019000201C90E7
:103EF0004FF0805021900220029004210391302144
:103F0000049111210591069007900020C0F2011044
:103F100008900098FDF752FF002803D0FFE7FCF758
:103F200091FFFFE726B080BD10B588B00A46034672
:103F30000790069100208DF8170007980068012867
:103F400003920293019008D0FFE70198022812D053
:103F5000FFE7019803281CD029E041F20000C4F2D9
:103F6000020000688007002804D4FFE701208DF8D4
:103F70001700FFE71FE041F20000C4F202000068F2
:103F80004005002804D4FFE701208DF81700FFE763
:103F900011E041F20000C4F20200006810F4C02FEA
:103FA00004D1FFE701208DF81700FFE703E00120AF
:103FB0008DF81700FFE79DF81700002840F0E1801A
:103FC000FFE741F20000C4F20200016821F08061C5
:103FD0000160FDF75BFD0490FFE741F20000C4F2D1
:103FE000020000680001002818D5FFE7FDF74EFD2C
:103FF000DDF810E0A0EB0E0003280ED3FFE741F23E
:104000000000C4F2020000680001002804D5FFE7A8
:1040100003208DF81700FFE700E0DEE79DF81700AA
:10402000002840F0AD80FFE7069800281FD1FFE789
:1040300041F21000C4F20200016848F20C02C0F222
:10404000FF721140079A1368D2F804C0D2F808E052
:10405000D2684FEA0E2E4EEAC2626FF00F0E0EEBE0
:104060000C1C42EA0C021A43114301604BE0069813
:10407000012824D1FFE741F21000C4F202000168D8
:1040800048F20C02CFF69F721140079A1368D2F8DB
:1040900004C0D2F808E012690024CFF6E07404EA04
:1040A0000252A2F5001242EA0E226FF00F0E0EEB42
:1040B0000C1C42EA0C021A431143016022E041F257
:1040C0001000C4F20200016848F20C02CFF6FF12A1
:1040D0001140079A1368D2F804C0D2F808E0526978
:1040E0004FF07E4404EA026202F17E4242EA0E226E
:1040F0006FF00F0E0EEB0C1C42EA0C021A43114338
:104100000160FFE7FFE741F20000C4F2020001682E
:1041100041F080610160FDF7B9FC0490FFE741F2D6
:104120000000C4F2020000680001002818D4FFE774
:10413000FDF7ACFCDDF810E0A0EB0E0003280ED379
:10414000FFE741F20000C4F202000068000100280D
:1041500004D4FFE703208DF81700FFE700E0DEE757
:104160009DF8170000280AD1FFE70798806941F2FF
:104170001001C4F202010A6810430860FFE7FFE77C
:10418000FFE79DF8170008B010BD000080B588B0AB
:104190000A4603460790069100208DF817000798FD
:1041A0000068012803920293019008D0FFE701986C
:1041B000022812D0FFE7019803281CD029E041F221
:1041C0000000C4F2020000688007002804D4FFE762
:1041D00001208DF81700FFE71FE041F20000C4F254
:1041E000020000684005002804D4FFE701208DF894
:1041F0001700FFE711E041F20000C4F2020000687E
:1042000010F4C02F04D1FFE701208DF81700FFE75D
:1042100003E001208DF81700FFE79DF81700002844
:1042200040F09480FFE741F20000C4F20200016810
:1042300021F080510160FDF729FC0490FFE741F275
:104240000000C4F2020000688000002818D5FFE7D3
:10425000FDF71CFCDDF810E0A0EB0E0003280ED3E8
:10426000FFE741F20000C4F202000068800000286D
:1042700004D5FFE703208DF81700FFE700E0DEE735
:104280009DF81700002860D1FFE7069800281FD18D
:10429000FFE741F21400C4F20200016848F20C0288
:1042A000C0F2FF721140079A1368D2F804C0D2F826
:1042B00008E0D2684FEA0E2E4EEAC2626FF00F0E8F
:1042C0000EEB0C1C42EA0C021A4311430160FFE79B
:1042D00041F20000C4F20200016841F08051016027
:1042E000FDF7D4FB0490FFE741F20000C4F20200A6
:1042F00000688000002818D4FFE7FDF7C7FBDDF851
:1043000010E0A0EB0E0003280ED3FFE741F20000FF
:10431000C4F2020000688000002804D4FFE70320F4
:104320008DF81700FFE700E0DEE79DF81700002892
:104330000AD1FFE70798006941F21401C4F20201B3
:104340000A6810430860FFE7FFE7FFE79DF81700E2
:1043500008B080BD87B041F20C00C4F202000168D1
:1043600001F0030104910068C0B2012101EB1010BB
:1043700002900498012800902CD0FFE700980228B2
:1043800004D0FFE70098032812D047E0029842F2D9
:104390000041C0F2F401B1FBF0F041F20C01C4F2B3
:1043A00002010968C1F3062100FB01F0059038E025
:1043B000029841F20021C0F27A01B1FBF0F041F223
:1043C0000C01C4F202010968C1F3062100FB01F0EF
:1043D000059026E041F20000C4F2020000680007E8
:1043E000002809D4FFE741F29400C4F202000068FB
:1043F000C0F30320069008E041F20000C4F202007E
:104400000068C0B200090690FFE7069847F6AC01C5
:10441000C0F6000151F82000059002E00020059050
:10442000FFE741F20C00C4F20200006800F0C06037
:10443000022101EB1060039005980399B0FBF1F0A5
:104440000190019807B0704780B588B0014606908A
:104450000020059041F25800C4F202000068C0003C
:104460000028029104D5FFE7FDF76AFC04901DE0E7
:10447000FFE741F25800C4F20200016841F08051A8
:104480000160006800F08050039003980190FFE7FE
:10449000FDF756FC049041F25800C4F20200D0F837
:1044A00000E02EF0805EC0F800E0FFE704980028EE
:1044B00005D0FFE70498B0F5007F10D1FFE706981C
:1044C00081280BD3FFE70698A12803D3FFE702203A
:1044D000059002E001200590FFE7FFE718E006984D
:1044E000812803D3FFE70320059010E00698802879
:1044F00003D1FFE70220059008E00698702803D159
:10450000FFE70120059000E0FFE7FFE7FFE7FFE797
:1045100042F20000C4F20200016821F00F01059A86
:1045200011430160006800F00F000599884204D033
:10453000FFE701208DF81F0003E000208DF81F0029
:10454000FFE79DF81F0008B080BD000080B586B071
:104550000146059000200490059890F82C00002852
:10456000029125D0FFE7059800F04AF8DDF810E049
:104570007044049000208DF80F004FF0100E8DF85D
:104580000EE0DDF814E00EF11C0E0DF10E0101221B
:104590000190704601F018FE0499084404900598B3
:1045A0000A2100F011F80598019980F82C10FFE716
:1045B0000498002804D0FFE74FF0FF300490FFE795
:1045C000049806B080BD000080B586B00A46034658
:1045D00005900491059880690292019380470390A9
:1045E000FFE7059880698047DDF80CE0A0EB0E003E
:1045F000DDF810E0704501D2FFE7F2E706B080BDBC
:1046000080B586B00146059000200490FE228DF80A
:104610000E208DF80F0005981C30BD220DF10E0301
:104620004FF0010C029111461A4601936346CDF8F2
:1046300000C001F0E3FD04990844049010208DF8B7
:104640000E0005981C300199009A01F0BDFD0499F7
:104650000844049005980A21FFF7B6FF0498002843
:1046600004D0FFE74FF0FF300490FFE7049806B056
:1046700080BD000080B586B0014605900020049002
:104680008DF80F0029208DF80E0005981C300DF1D3
:104690000E0201230291114601921A46009301F085
:1046A00093FD04990844049011208DF80E0005989C
:1046B0001C300199009A01F087FD04990844049088
:1046C0000498002804D0FFE74FF0FF300490FFE784
:1046D000049806B080BD0000B0B594B09C469646E4
:1046E0000C460546139012911192109300200F90E2
:1046F0001098D0F802000B901098D0F80A000C9097
:104700001098D0F812000A900A9801380A90109870
:10471000D0F8160009900998013809900B980C9967
:10472000401A0B900B9840080B901398006B0028D0
:10473000CDF818C0CDF814E0049403950BD1FFE731
:1047400011980999084440F23F11081A08901198ED
:10475000081A07901BE01398006B02280BD1FFE7A3
:10476000119809990844C0F1EF0008901198C0F120
:10477000EF0007900AE0119809990844C0F1EF0092
:1047800008901198C0F1EF000790FFE7FFE713983A
:10479000006B012820D1FFE712985030000A8DF8F5
:1047A000340000208DF83500129950318DF8361004
:1047B0008DF8370012990A9A11445031090A8DF880
:1047C00038108DF8390012990A9A114450318DF839
:1047D0003A108DF83B001BE01298000A8DF8340067
:1047E00000208DF8350012998DF836108DF83700BD
:1047F00012990A9A1144090A8DF838108DF8390077
:1048000012990A9A11448DF83A108DF83B00FFE78F
:1048100013981C302A210DAA04230292019301F05F
:10482000EDFC0F9908440F900898000A8DF83400A9
:1048300000208DF8350008998DF836108DF8370076
:104840000799090A8DF838108DF8390007998DF805
:104850003A108DF83B0013981C302B21029A019BD3
:1048600001F0CCFC0F9908440F901398006B0028BE
:1048700005D0FFE71398006B02281AD1FFE71398C1
:10488000006B4021002808BF80218DF834104FF0C4
:1048900000008DF83500139800F11C004FF0360130
:1048A0000DAA4FF0010301F0A9FC0F9908440F90E5
:1048B00019E01398006B2021012808BFE0218DF832
:1048C00034104FF000008DF83500139800F11C00F3
:1048D0004FF036010DAA4FF0010301F08FFC0F9944
:1048E00008440F90FFE713981C3010990C9A0A4463
:1048F0000B9B2C2101F082FC0F9908440F90139818
:10490000006B012815D1FFE700208DF834008DF8E9
:10491000350050218DF836108DF8370001218DF8C3
:1049200038108DF839003F218DF83A108DF83B0092
:1049300012E000208DF834008DF835008DF8360037
:104940008DF837008DF838008DF83900EF218DF89B
:104950003A108DF83B00FFE713981C302A210DAA6E
:10496000042301F04BFC0F9908440F901398006B3F
:10497000022815D1FFE700208DF834008DF83500AE
:1049800050218DF836108DF8370001218DF8381040
:104990008DF839003F218DF83A108DF83B0012E078
:1049A00000208DF834008DF835008DF836008DF834
:1049B00037008DF838008DF83900EF218DF83A1066
:1049C0008DF83B00FFE713981C302B210DAA042320
:1049D00001F014FC0F9908440F901398006B002805
:1049E00005D0FFE71398006B022819D1FFE7139851
:1049F000006B002818BFC0208DF834004FF0000075
:104A00008DF83500139800F11C004FF036010DAA07
:104A10004FF0010301F0F2FB0F9908440F9019E0E9
:104A20001398006B6021012808BFA0218DF8341075
:104A30004FF000008DF83500139800F11C004FF086
:104A400036010DAA4FF0010301F0D8FB0F9908447D
:104A50000F90FFE70F98002804D0FFE74FF0FF30DA
:104A60000F90FFE70F9814B0B0BD000070B58EB086
:104A7000DDF848C09E4614460D4606460D900C9142
:104A80000B920A93002009900D980C990B9ACDF87F
:104A900018C0CDF814E004940395029600F01AFEB5
:104AA00009990844099012988DF822001298000A7A
:104AB0008DF823000D981C302C210DF122020123CA
:104AC000019301F09BFB0999084409900198079014
:104AD000FFE707980A99884210D2FFE70D981C302B
:104AE0003C210DF12202012301F088FB09990844C1
:104AF0000990FFE7079801300790EAE70C980A99B8
:104B00000844F02817D1FFE70D980C990A9A114430
:104B100001390B9A00F0DEFD0999084409900D98BF
:104B20001C302C210DF12202012301F067FB0999B1
:104B300008440990FFE70998002804D0FFE74FF0E8
:104B4000FF300990FFE709980EB070BD70B58CB0CA
:104B5000DDF840C09E4614460D4606460B900A916D
:104B600009920893002007900690CDF814C0CDF864
:104B700010E0039402950196FFE706980899884291
:104B800010D2FFE70B980A99099A069B1A44109BCA
:104B900000F072FE079908440790FFE7069801307D
:104BA0000690EAE70798002804D0FFE74FF0FF30AF
:104BB0000790FFE707980CB070BD0000F0B5ADF5A9
:104BC000077DDDF834C2DDF830E21C4615460E469E
:104BD00007468690859184928393002082908399E2
:104BE00009910890CDF818C0CDF814E0049403950D
:104BF00002960197FFE708988D99884238D2FFE71F
:104C000086988599849A089B1A4400F063FD8299DE
:104C10000844829000200790FFE707988C9988420B
:104C200017D2FFE70998007807990AAA02F811003D
:104C300009980130099009980078079902EB410121
:104C40004870099801300990FFE7079801300790F4
:104C5000E3E786981C308C9B2C210AAA01F0CEFA3F
:104C6000829908448290FFE7089801300890C2E7D3
:104C70008298002804D0FFE74FF0FF308290FFE7D2
:104C800082980DF5077DF0BDF0B58DB0DDF84CC014
:104C9000DDF848E01C4615460E4607460C900B9181
:104CA0000A920993002008900790CDF818C0CDF81B
:104CB00014E00494039502960197FFE70798129970
:104CC000884219D2FFE70C980B99079A0A9B1A445D
:104CD000099BDDF84CC0EE46CEF800C0FFF7C6FEDB
:104CE000002804D0FFE74FF0FF30089004E0FFE712
:104CF000079801300790E1E708980DB0F0BD00007B
:104D000084B00A460346039002914FF0FF300192AF
:104D1000009304B07047000085B00A460346049033
:104D20000391002002900498006B03990860029898
:104D30000192009305B07047B0B58CB09C46964682
:104D40000C4605460B900A910992089300200790A3
:104D50000B980A99099ACDF810C0CDF80CE002948E
:104D6000019500F0B7FC0799084407900B981C3098
:104D70002E210DF11602032301F006FA07990844CB
:104D800007909DF818009DF819109DF81B204FF40E
:104D9000784303EA012100F0FC0041EAC00040EA48
:104DA000D200089908600798002804D0FFE74FF068
:104DB000FF300790FFE707980CB0B0BD84B00A46FB
:104DC0000346039002910298F021016000200192B5
:104DD000009304B07047000084B00A460346039075
:104DE00002910298F021016000200192009304B02A
:104DF0007047000070B59EB013468C4686461D90E5
:104E00001C911B9200201A901D9890F82C000028ED
:104E10001293CDF844C0CDF840E040F06782FFE740
:104E200000208DF84D0010208DF84C001D981C308E
:104E300013A901220F910E9201F0C6F91A990844A4
:104E40001A901D980A21FFF7BFFB0E988DF84C00B1
:104E50001D9901F11C000F990E9A01F0B5F91A99EC
:104E600008441A901D98C821FFF7AEFB11208DF859
:104E70004C001D981C300F990E9A01F0A5F91A9953
:104E800008441A901D987821FFF79EFB1B98002874
:104E900004D1FFE700208DF84C0015E01B98012895
:104EA00004D1FFE7A0208DF84C000CE01B980228ED
:104EB00004D1FFE7C0208DF84C0003E060208DF89E
:104EC0004C00FFE7FFE7FFE700208DF84D001D983D
:104ED0001C30362113AA01230D920C9301F08EF998
:104EE0001A9908441A901C988DF84C001D981C3093
:104EF0003A210D9A0C9B01F081F91A9908441A90F5
:104F000021208DF84C001D981C300D990C9A01F051
:104F10005BF91A9908441A901B98012815D1FFE7EC
:104F200000208DF84C008DF84D0050218DF84E106A
:104F30008DF84F0001218DF850108DF851003F2160
:104F40008DF852108DF8530012E000208DF84C00BF
:104F50008DF84D008DF84E008DF84F008DF8500003
:104F60008DF85100EF218DF852108DF85300FFE7B6
:104F70001D981C302A2113AA042301F03FF91A9925
:104F800008441A901B98022815D1FFE700208DF8DD
:104F90004C008DF84D0050218DF84E108DF84F00CB
:104FA00001218DF850108DF851003F218DF85210DD
:104FB0008DF8530012E000208DF84C008DF84D0064
:104FC0008DF84E008DF84F008DF850008DF851008F
:104FD000EF218DF852108DF85300FFE71D981C301B
:104FE0002B2113AA04230B9201F008F91A99084403
:104FF0001A900C208DF84C0000218DF84D108DF882
:105000004E008DF84F108DF850108DF8511033224E
:105010008DF852208DF853108DF854208DF85510CE
:105020001D9B1C334FF0B20E4FF0050C0A90184632
:10503000099171460B9B08921A46634601F0DEF80F
:105040001A9908441A9035208DF84C0009998DF86A
:105050004D101D9A1C32B7210123079010460B9A60
:10506000069301F0CBF81A9908441A901F208DF886
:105070004C0009988DF84D001D9901F11C00BB21D1
:105080000B9A069B01F0BAF81A9908441A902C2042
:105090008DF84C0009988DF84D001D9901F11C0008
:1050A000C0210B9A069B01F0A9F81A9908441A909E
:1050B00006988DF84C0009998DF84D10C3228DF893
:1050C0004E208DF84F101D9A02F11C00C2210222C1
:1050D0000B9B05921A46059B01F090F81A9908441B
:1050E0001A9020208DF84C0009988DF84D001D99DC
:1050F00001F11C00C4210B9A069B01F07FF81A995C
:1051000008441A900F208DF84C0009988DF84D0036
:105110001D9901F11C00C6210B9A069B01F06EF847
:105120001A9908441A90A4208DF84C0009988DF81B
:105130004D00A1218DF84E108DF84F001D9901F101
:105140001C00D02104910B9A059B01F057F81A9985
:1051500008441A9004988DF84C0009998DF84D1068
:1051600008228DF84E208DF84F1011238DF8503005
:105170008DF851108DF852208DF853100A9B8DF840
:1051800054308DF855104FF0150C8DF856C08DF831
:1051900057104FF0390C8DF858C08DF85910DDF8C4
:1051A00020E08DF85AE08DF85B1050248DF85C40BB
:1051B0008DF85D1036248DF85E408DF85F10132455
:1051C0008DF860408DF8611014248DF862408DF8E0
:1051D000631029258DF864508DF865102D258DF804
:1051E00066508DF867101D9D05F11C00E0210E250D
:1051F0000B9E039232462B46CDF808C001940095D1
:1052000000F0FCFF1A9908441A9004988DF84C009D
:1052100009998DF84D10039A8DF84E208DF84F1096
:1052200010238DF850308DF851108DF852208DF8E4
:10523000531006238DF854308DF855108DF85630E4
:105240008DF85710029B8DF858308DF859104FF09B
:10525000440C8DF85AC08DF85B104FF0510C8DF84E
:105260005CC08DF85D104FF00B0C8DF85EC08DF8B2
:105270005F104FF0160C8DF860C08DF86110DDF8EE
:1052800004C08DF862C08DF863104FF02F0E8DF8BA
:1052900064E08DF865104FF0310E8DF866E08DF802
:1052A0006710DDF874E00EF11C00E1210B9A009B01
:1052B00000F0A4FF1A9908441A9006988DF84C0043
:1052C00009998DF84D101D9A02F11C0007990B9A4F
:1052D000069B00F093FF1A9908441A901D980699AE
:1052E00080F82C101B981D9A1063FFE71A9800286D
:1052F00004D0FFE74FF0FF301A90FFE71A981EB076
:1053000070BD000080B596B0FFE741F24C00C4F2DA
:105310000200016841F080010160006800F0800037
:10532000109010980D90FFE701201290002113912A
:1053300003221492119041F60042C4F2022211ABF2
:105340000C9010460B9119460A92FCF7BDF90A9889
:105350000C990B9AFCF77AFBFFE741F24C00C4F280
:105360000200016841F020010160006800F02000A7
:105370000F900F980990FFE70120129000211391E0
:10538000032214924FF48042119241F20043C4F27E
:1053900002230DF1440C08901846079161460692CD
:1053A0000593FCF791F905980699079AFCF74EFBCF
:1053B0000898FBF7B7FF05980699089AFCF746FB93
:1053C0007820FBF7AFFFFFE741F24C00C4F2020088
:1053D000016841F010010160006800F010000E90BB
:1053E0000E980490FFE701201290002113910321F1
:1053F00014910221119141F20002C4F2022211AB78
:1054000003901046029119460192FCF75DF901984C
:105410000299039AFCF71AFB16B080BD80B58EB0D6
:1054200001460D900120ADF81C0043F63510C0F682
:105430000000059043F6F500C0F60000069043F624
:105440009110C0F60000099043F68920C0F60000D4
:10545000089043F62920C0F600000A9043F6251074
:10546000C0F600000B9040F29010C2F2000005AAB6
:105470000291114600F0B6F8002804D0FFE76FF063
:1054800007000C9061E040F29010C2F2000004A905
:1054900000F05EF8002804D0FFE76FF004000C90E5
:1054A00052E00498852804D0FFE76FF006000C90C6
:1054B00049E040F24810C2F2000040F29011C2F2FE
:1054C0000001016040F24C10C2F2000040F21801ED
:1054D000C2F2000101600D98002803D1FFE700200F
:1054E000039012E00D98012803D1FFE701200390FB
:1054F0000AE00D98022803D1FFE70220039002E0A2
:1055000003200390FFE7FFE7FFE740F24C10C2F2F1
:1055100000000068006840F24811C2F2000109680A
:10552000039A0523019008461946019B9847B0F15C
:10553000FF3F04DCFFE76FF004000C9002E0002066
:105540000C90FFE7FFE7FFE7FFE70C980EB080BD88
:1055500080B586B00A4603460590049105981C3034
:10556000DA210DF1080C4FF0020E01926246009311
:10557000734600F009FE03909DF80A009DF80B1099
:1055800040EA0120049908600398002804D0FFE74E
:105590004FF0FF300390FFE7039806B080BD000096
:1055A00070B58AB09C4696460C4605460990ADF803
:1055B00022100792069309980590059801690089C1
:1055C000BDF82220079B069E049111461A463346D9
:1055D000049ECDF80CC0CDF808E001940095B047CA
:1055E0000AB070BD80B586B00A46034605900491A6
:1055F000059800280292019304D1FFE74FF0FF3095
:1056000003903EE00498006805990860049840689B
:105610000599486004980089059908810498C06834
:105620000599C86004980069059908610498406963
:10563000059948610498806905998861059845F243
:10564000A151C0F600010162059845F6D901C0F6E6
:105650000001C161059845F28961C0F6000141620F
:105660000598806205980068002805D0FFE7059836
:1056700000688047039003E04FF0FF300390FFE79E
:10568000FFE7039806B080BD80B588B013468C460E
:105690008646079006910592079804900498406901
:1056A0000699059A039008461146039A0293CDF88D
:1056B00004C0CDF800E0904708B080BD84B00A4631
:1056C0000346039002914FF0FF300192009304B023
:1056D0007047000080B58AB013468C468646099014
:1056E00008910792002006900998006B0128039307
:1056F000CDF808C0CDF804E019D1FFE70898503084
:10570000000A8DF8100000208DF811000899503122
:105710008DF812108DF8130001218DF814108DF8FA
:1057200015003F218DF816108DF8170015E0089828
:10573000000A8DF8100000208DF8110008998DF8EE
:1057400012108DF813008DF814008DF81500EF215C
:105750008DF816108DF81700FFE709981C302A21E4
:1057600004AA042300F04AFD06990844069009980B
:10577000006B022819D1FFE707985030000A8DF816
:10578000100000208DF81100079950318DF812108B
:105790008DF8130001218DF814108DF815003F21AC
:1057A0008DF816108DF8170015E00798000A8DF88F
:1057B000100000208DF8110007998DF812108DF857
:1057C00013008DF814008DF81500EF218DF81610D8
:1057D0008DF81700FFE709981C302B2104AA042339
:1057E00000F00CFD0699084406900698002804D0A5
:1057F000FFE74FF0FF300690FFE706980AB080BD44
:1058000080B586B00A4603460590049100200390B7
:10581000049800280192009304D1FFE700208DF83E
:105820000A0015E00498012804D1FFE7A0208DF8B4
:105830000A000CE00498022804D1FFE7C0208DF88C
:105840000A0003E060208DF80A00FFE7FFE7FFE7AA
:1058500000208DF80B0005981C3036210DF10A024E
:10586000012300F0CBFC03990844039004980599A8
:105870000863039806B080BDB0B58AB09C469646D2
:105880000C46054609900891079206930020059062
:1058900009980899079ACDF810C0CDF80CE0029449
:1058A0000195FFF717FF05990844059009981C30EA
:1058B0002C2106AA012300F0A1FC059908440590BB
:1058C0000598002804D0FFE74FF0FF300590FFE770
:1058D00005980AB0B0BD000070B58AB09C469646E7
:1058E0000C4605460990ADF82210079206930998D8
:1058F00005900598C1680089BDF82220079B069E87
:10590000049111461A463346049ECDF80CC0CDF8DA
:1059100008E001940095B0470AB070BD70470000E0
:1059200080B584B00146029002980138B0F1807FC2
:10593000019103D3FFE7012003901CE00298013896
:105940004EF21401CEF2000108604FF0FF30072143
:10595000009100F0BFFB4EF21800CEF200000021D3
:1059600001604EF21000CEF20000DDF800E0C0F859
:1059700000E00391FFE7039804B080BD80B5FCF719
:105980008BF880BD80B598B006A84821FAF7AAFC2C
:10599000002005900490039002900190FCF742F9DA
:1059A000002803D0FFE7FBF74DFAFFE7FCF7F2F919
:1059B00041F2900EC4F2020EDEF8000020F0180052
:1059C000CEF8000016200690812008904FF48070D9
:1059D000099040200A9001200D904FF0000ECDF864
:1059E00038E04FF0B00ECDF83CE04FF0020ECDF8AD
:1059F00044E012900C20139037201490072015904B
:105A0000CDF858E0CDF85CE006A8FDF767F800286F
:105A100003D0FFE7FBF716FAFFE70F200190032002
:105A20000290002003900490059001A80521FCF746
:105A3000CDFD002803D0FFE7FBF704FAFFE7FCF7F2
:105A4000B3F918B080BD000088B041F20000C4F284
:105A5000020000680007002809D4FFE741F2940023
:105A6000C4F202000068C0F30320069008E041F28F
:105A70000000C4F202000068C0B200090690FFE70F
:105A8000069847F6AC01C0F6000151F820000690D8
:105A900041F20800C4F20200006800F00C00014668
:105AA0000C28019100F270800199DFE801F0076D88
:105AB0006D6D0E6D6D6D186D6D6D2200069840F266
:105AC0006401C2F20001086065E040F26400C2F2C5
:105AD000000042F20041C0F2F40101605BE040F2DC
